:1000000045C00000A6C2000060C00000DAC20000C7
:1000100053C300005AC0000058C0000056C0000082
:1000200054C0000052C0000050C000004EC000008C
:100030004CC000004AC0000048C0000046C000009C
:10004000BFC1000042C0000056C200003EC0000018
:100050003CC000008EC1000038C0000036C0000067
:1000600034C0000032C0000030C000002EC00000CC
:1000700027C200002AC0000028C0000026C00000DF
:1000800024C0000022C0000020C0000011241FBEB8
:10009000CFEFD0E1DEBFCDBF11E0A0E0B1E0E4E6FC
:1000A000FCE100E00BBF02C007900D92A235B10742
:1000B000D9F722E0A2E5B1E001C01D92A535B20753
:1000C000E1F70E943C090C94300E9ACF009741F062
:1000D00020E030E000002F5F3F4F28173907D1F7AD
:1000E000089580E590E0F2DFE0E0F0E88081882389
:1000F000ECF30895CF93C82FF4DFC0930080CF9125
:100100000895CF93C82FEDDFC09300C0CF9108951D
:10011000EF92FF920F931F93CF93FC01C081CC23EA
:1001200081F08C010F5F1F4F0F2EE12CF0ECFF2EA2
:10013000F02DD7DFF701C083F801C1918F01C11104
:10014000F8CFCF911F910F91FF90EF900895CF932B
:10015000613108F060E1CFEFC60F833008F082E034
:1001600090E4899FC00D1124C054BBDFC068B9DF83
:10017000C0930080CF910895009769F020E030E0AF
:10018000E7ECF0E03197F1F700C000002F5F3F4F40
:1001900028173907A9F70895CF92DF92EF92FF92BF
:1001A000CF93DF9321E0209352023FEF3093500230
:1001B00080E794E090934F0280934E028091520228
:1001C00090E0909354028093530215BE37BB209366
:1001D0008B0083E180938A0010928C0080914E0204
:1001E00090914F029093870080914E0290914F0220
:1001F000809386006091530270915402C0914E0228
:10020000D0914F0280E090E00E944F0A20E030E061
:1002100048EC52E40E94B6096B017C01BE0180E00B
:1002200090E00E944F0A9B01AC01C701B6010E94F9
:10023000DD0A0E94230A7093360260933502809192
:10024000350290913602909383008091350290910F
:10025000360280938200DF91CF91FF90EF90DF9084
:10026000CF9008958AE080937000109271000895F5
:100270008E7F94EA90937400E4E7F0E090819923F4
:10028000ECF78093730084EC80937400E4E7F0E073
:1002900080818823ECF77093730084E88093740066
:1002A000E4E7F0E080818823ECF76093730084E852
:1002B00080937400E4E7F0E080818823ECF74093BA
:1002C000730084E880937400E4E7F0E08081882381
:1002D000ECF784E98093740086E090E04DCF0895B8
:1002E000282F2E7F816094EA90937400E4E7F0E079
:1002F00090819923ECF72093730094E89093740015
:10030000E4E7F0E090819923ECF77093730094E8B0
:1003100090937400E4E7F0E090819923ECF7609308
:10032000730094E890937400E4E7F0E090819923DF
:10033000ECF794EA90937400E4E7F0E0908199235D
:10034000ECF78093730084E880937400E4E7F0E0B6
:1003500080818823ECF784E880937400E4E7F0E080
:1003600080818823ECF78091730094E99093740066
:1003700008951F920F920FB60F9211242F933F935F
:100380008F939F9384B190E09093310280933002D9
:1003900095B12091300230913102892F90E0982F51
:1003A0008827820F931F90933102809330029F9190
:1003B0008F913F912F910F900FBE0F901F90189526
:1003C0001F920F920FB60F9211242F938F939F932A
:1003D00080911D0290911E02019690931E028093BF
:1003E0001D028091190290911A02019690931A02AF
:1003F00080931902809117029091180201969093B0
:1004000018028093170280911302909114020196B2
:1004100090931402809313028091240290912502FC
:10042000019690932502809324028091240290915A
:1004300025028A3F910511F481E089BF80911D0258
:1004400090911E02883E934098F010921E021092E6
:100450001D02809122029091230201969093230223
:100460008093220281E090E090931C0280931B0213
:100470008091190290911A02883B9B4050F0109293
:100480001A021092190281E090E090931602809374
:10049000150280911302909114028031974230F03E
:1004A00081E090E090930B0180930A0183E882BF82
:1004B0009F918F912F910F900FBE0F901F901895C5
:1004C0001F920F920FB60F9211248F9380910C01FF
:1004D000813049F080915002809580935002809144
:1004E000500288BB02C08FEF88BB8F910F900FBE68
:1004F0000F901F9018951F920F920FB60F92112414
:100500008F938CB18093210281E0809312028F91AE
:100510000F900FBE0F901F90189561E081E017DEDD
:100520008DE091E0F5DD64E082E011DE86E191E0AE
:10053000EFCD089590B3891751F02FEF81EE94E03D
:10054000215080409040E1F700C0000090B3892F17
:1005500008951F920F920FB60F9211240BB60F92AF
:100560002F933F934F935F936F937F938F939F93BB
:10057000AF93BF93EF93FF9380B38093320280B326
:10058000D9DF8093510290913202809151029813E9
:1005900005C080910C01809580930C01FF91EF9133
:1005A000BF91AF919F918F917F916F915F914F918B
:1005B0003F912F910F900BBE0F900FBE0F901F9089
:1005C00018951F920F920FB60F9211240BB60F922F
:1005D000CF92DF92EF92FF922F933F934F935F93CF
:1005E0006F937F938F939F93AF93BF93CF93DF933B
:1005F000EF93FF9380B38093320280B39BDF8093AD
:100600005102909132028091510298133CC0809126
:100610005202833628F4809152028F5F80935202F7
:100620008091520290E09093540280935302609123
:10063000530270915402C0914E02D0914F0280E05B
:1006400090E02DD720E030E042E053E48FD66B01FC
:100650007C01BE0180E090E022D79B01AC01C70184
:10066000B601ABD7F0D67093360260933502809115
:1006700035029091360290938300809135029091DB
:10068000360280938200FF91EF91DF91CF91BF916D
:10069000AF919F918F917F916F915F914F913F911A
:1006A0002F91FF90EF90DF90CF900F900BBE0F90A7
:1006B0000FBE0F901F9018951F920F920FB60F92BA
:1006C00011240BB60F92CF92DF92EF92FF922F93ED
:1006D0003F934F935F936F937F938F939F93AF93CA
:1006E000BF93CF93DF93EF93FF9380B38093320256
:1006F00080B320DF809351029091320280915102A9
:10070000981341C08091520281508093520280918F
:100710005202823028F0809152028150809352021E
:100720008091520290E09093540280935302609122
:10073000530270915402C0914E02D0914F0280E05A
:1007400090E0ADD620E030E042E053E40FD66B01FC
:100750007C01BE0180E090E0A2D69B01AC01C70104
:10076000B6012BD770D67093360260933502809114
:1007700035029091360290938300809135029091DA
:10078000360280938200FF91EF91DF91CF91BF916C
:10079000AF919F918F917F916F915F914F913F9119
:1007A0002F91FF90EF90DF90CF900F900BBE0F90A6
:1007B0000FBE0F901F901895E199FECF9FBB8EBB87
:1007C0006DBBF894E29AE19A78940895E199FECF8E
:1007D0009FBB8EBBE09A8DB3089584E090E0F6DF76
:1007E00080935202809152028F3F19F481E08093EE
:1007F0005202089582EA80936A008DE089BF0895CD
:1008000081E089BF82E080936A00089583E882BF17
:1008100084E083BF87B7816087BF089580E487B98C
:100820008EEA86B9369A08951FBE1BB888E98AB940
:1008300086E0809395001092900083E389B9089533
:1008400080E885BF81E056DC88E354DC86E052DC3A
:1008500080E150DC80E14EDC8FE04CCC0895CF93FA
:10086000DF9382E047DC809100014BDC80E249DCD1
:10087000CAE3D2E0888145DC898143DC8AE341DC3C
:100880008A813FDC8B813DDC8AE33BDC8C8139DC77
:100890008D8137DC80E235DC6EE081E058DC8091D0
:1008A00052022FDC61E082E052DC8AE292E030DC2E
:1008B0006091520284E090E07FDF6EE082E047DCEE
:1008C00081E291E025DCDF91CF910895E6EDF1E042
:1008D00082E0808391E3918380E382839383948396
:1008E0008583868383E087830895E6EDF1E082E0E7
:1008F000808391E3918380E38283938392E3948363
:100900008583868383E08783089580E090E0FC01FF
:10091000E052FE4F1082019682339105C1F710928A
:1009200053010895E0EEF1E04581268150E0405307
:100930005109BA01660F771F440F551F440F551F09
:10094000440F551F640F751F30E020533109620FAB
:10095000731F90917C016230710564F021E030E0FA
:10096000F901E458FE4F408194272F5F3F4F26172F
:100970003707B1F721E092272EEF290F223008F434
:1009800094E021E030E0981711F020E030E0C90158
:100990000895E0EEF1E02581868130E020533109B1
:1009A000A901440F551F220F331F220F331F220F9F
:1009B000331F420F531F90E0C097480F591F411536
:1009C0005105E1F0F4F080E090E0FC01E951FE4FC8
:1009D0002081FC01E458FE4F20830196841795077F
:1009E000A1F7FA01E951FE4F80819CDF31E020E060
:1009F000892B09F430E0832F922F089581E090E055
:100A0000089580E090E00895CF93DF93C0E0D0E0B8
:100A1000FE01EA52FE4F8081A5D42196C830D1054F
:100A2000B9F7DF91CF91089580917C0190E0C09754
:100A300021E030E0082E02C0220F331F0A94E2F7B3
:100A4000FC01EF5FFE4F4081443051F4FC01EF5F49
:100A5000FE4F33E0308388B32095282328BB0895C8
:100A6000FC01EF5FFE4F34E0308388B3282B28BBB6
:100A7000089580E090E0FC01EC5AFE4F1082019650
:100A800082339105C1F70895CF93DF93E0EEF1E053
:100A90008581268190E0C097EC01CC0FDD1F880F87
:100AA000991F880F991F880F991F8C0F9D1FC22FA8
:100AB000D0E0E097C80FD91FDCDFE4E5F1E08AE27F
:100AC000808381831C161D067CF480E090E0FC018D
:100AD000E458FE4F2081FC01EA5AFE4F2083019624
:100AE0008C179D07A1F702C0C0E0D0E0FE01EA5AD2
:100AF000FE4F8AE28083FE01E95AFE4F808384E53F
:100B000091E09093270280932602C85ADE4F888195
:100B100090E09093200280931F0210921402109292
:100B2000130210920B0110920A01DF91CF910895E8
:100B3000E0EEF1E08381248190E0C097AC01440FA6
:100B4000551F880F991F880F991F880F991F840FB1
:100B5000951F30E020533109820F931F8C3091058F
:100B6000B9F01CF40B9739F021C080319105B1F038
:100B70004197C1F01BC085E08093000110921802DC
:100B80001092170281E08093520181E090E0089575
:100B900081E08093520181E090E0089545DF81E09B
:100BA00090E0089571DF81E090E0089580E090E0AA
:100BB00008958CDEEEDE892B11F497CE0895809196
:100BC000E101803311F091CE08958091E2018133EB
:100BD00011F08BCE0895ACDF892B09F486CE0895F1
:100BE000809121028093370280913702823011F484
:100BF0008093E0018091E001823069F4E09153013B
:100C0000F0E080913702E052FE4F808380915301E3
:100C10008F5F809353018091E001823089F4E091ED
:100C20005301F0E0E152FE4F8081833049F4C1DF8F
:100C300080915201811101C0E7DE67DE10925201FE
:100C400008950F931F93CF93DF93992364F08C0142
:100C5000C0E0D0E0FE01EC55FE4F808183D32196A9
:100C60000C171D07BCF7DF91CF911F910F910895CD
:100C70000F931F93CF93DF93DC01EB01288130E0CA
:100C8000205331098901000F111F220F331F220F3A
:100C9000331F220F331F200F311F098110E0005333
:100CA0001109020F131FE4EAF1E082E0808381E37F
:100CB000818380E382838C91838311968C918483DA
:100CC000888185838981868310161106E4F4FA01F0
:100CD000BA01600F711F27E030E091E0DF01519110
:100CE000E901CC55DE4F58835C9195272F5F3F4F2C
:100CF000E617F70799F7095F1F4F8EEF890F8230CC
:100D000028F494E003C007E010E091E0F801EC550E
:100D1000FE4F9083C8010196FC01EC55FE4F23E085
:100D200020838FDFDF91CF911F910F91089540E0D5
:100D300050E062E471E085E291E09ACF0895FC0111
:100D4000808190E0C0979C01220F331F880F991F6C
:100D5000880F991F880F991F820F931F218130E000
:100D600020533109820F931F9093390280933802E8
:100D7000228130E020533109C901880F991F220FC9
:100D8000331F220F331F220F331F280F391F838178
:100D900090E0C097280F391F309329022093280232
:100DA000248130E020533109C901880F991F220F97
:100DB000331F220F331F220F331F280F391F858146
:100DC00090E0C097280F391F30932302209322020E
:100DD0000895CF93DF93C1E0D0E0FE01E75CFD4FC3
:100DE0004081BE0180EA44DA2196C730D105A9F7D7
:100DF000DF91CF9108958091220290912302CC97A8
:100E000094F08091220290912302CC979093230238
:100E1000809322028091280290912902019690935A
:100E20002902809328028091280290912902CC9770
:100E30006CF0109229021092280280913802909151
:100E40003902019690933902809338024091220230
:100E5000509123022091280230912902809138027A
:100E6000909139025F934F933F932F939F938F936A
:100E700088E291E09F938F938AE392E09F938F9310
:100E800026D4A7DF4AE352E068E371E08BE391E008
:100E9000EFDE8DB79EB70A960FB6F8949EBF0FBED1
:100EA0008DBF0895EF92FF920F931F93CF93DF931F
:100EB000CDB7DEB727970FB6F894DEBF0FBECDBF14
:100EC00060E070E080EA0CDA8133A1F4CE01019693
:100ED0007C0101E010E0B80180EA02DAF7018193B9
:100EE0007F010F5F1F4F07301105A9F7CE01019653
:100EF00026DF13C041E360E070E080EAB9D901E089
:100F000010E040E3B80180EAB3D90F5F1F4F07300C
:100F10001105B9F78EE391E012DF27960FB6F8942A
:100F2000DEBF0FBECDBFDF91CF911F910F91FF901C
:100F3000EF900895CF93DF9300D01F92CDB7DEB727
:100F40006091300270913102CB01880F991F880F98
:100F5000991F680F791F072E000C880B990BA1D2DF
:100F600020E030E040E85AE328D320E030E048ECCD
:100F700052E423D363D2072E000C880B990B91D235
:100F80002DEC3CEC4CE45EE318D358D2643671058A
:100F900011F463E670E0EAE2F2E086E580838AE33A
:100FA0008183CB016AE070E06BD3605D6283805D1A
:100FB000838385E284838281898383818A83AE01EE
:100FC0004F5F5F4F65E471E088E491E051DE0F9080
:100FD0000F900F90DF91CF910895CF93DF93CDB70E
:100FE000DEB72A970FB6F894DEBF0FBECDBF80B331
:100FF0008095DE0111969E01275F3F4FFD01982FDE
:10100000917091938695E217F307C9F780E090E01D
:1010100044E053E02D912130D9F420E3280F2987B3
:10102000FC01EF5FFE4F2081243049F4FC01EF5FAB
:10103000FE4F508320B338B3232328BB09C0FC01E3
:10104000EF5FFE4F408320B338B32095232B28BB9E
:10105000019688309105F1F6AE01475F5F4F6BE472
:1010600071E08EE491E004DE1092250210922402D9
:1010700080912402909125028A3F9105C9F72A9612
:101080000FB6F894DEBF0FBECDBFDF91CF910895AC
:10109000CF93DF9382E02ED8809126029091270291
:1010A0009093340280933302C1E1D0E0E0913302A7
:1010B000F09134028081811103C080E222D80BC0FC
:1010C00080811FD8809133029091340201969093D1
:1010D000340280933302219749F7E0912602F09180
:1010E00027028081882329F03196F0932702E0932C
:1010F0002602DF91CF91089588E50E947A008FE162
:1011000000D889E50E947A008FE10E9481008AE57B
:101110000E947A008FE10E9481008BE50E947A0094
:101120008FE10E9481008CE50E947A008FE10E948D
:1011300081008DE50E947A008FE10E9481008EE59A
:101140000E947A008FE10E9481008FE50E947A0060
:101150008FE10E94810080E60E947A008FE10E9468
:10116000810081E60E947A0081E10E94810082E68E
:101170000E947A0081E10E94810083E60E947A0049
:1011800081E10E94810084E60E947A0081E10E9450
:10119000810085E60E947A0081E10E94810086E656
:1011A0000E947A0081E10E94810087E60E947A0015
:1011B0008FE10E94810088E60E947A008DE10E9402
:1011C000810089E60E947A0087E00E9481008AE619
:1011D0000E947A008DE10E9481008BE60E947A00D5
:1011E0008BE00E9481008CE60E947A0081E10E94DF
:1011F00081008DE60E947A008FE10E9481008EE6D8
:101200000E947A0081E10E9481008FE60E947A00AC
:101210008FE10E94810080E70E947A008BE10E94AA
:10122000810081E70E947A0089E00E94810082E7C4
:101230000E947A0089E00E94810083E70E947A0080
:101240008FE10E94810084E70E947A0080E00E9482
:10125000810085E70E947A008FE10E94810086E785
:101260000E947A0081E10E94810087E70E947A0053
:101270008FE10C94810008951FBE80E885BF8FEF39
:1012800087BB0E94CC00DCDA48D92FEF8DE399E4CC
:10129000215080409040E1F700C00000D1DAB6DA7A
:1012A000AFDA0E943201BADABFDA26DFA3DA8FB7EB
:1012B00080688FBF80E090E024E0FC01EF5FFE4F8C
:1012C0002083019688309105C1F787DAEBDD86E04F
:1012D00080930001D5E0C6E080B38F3F09F07DDE4A
:1012E00018BA2FEF84E39CE0215080409040E1F752
:1012F00000C0000089B78C6089BF80911B0290916B
:101300001C02019791F410921C0210921B0273DDD3
:10131000D09300010FDE80910A0190910B0101979B
:1013200019F49DDA5ADA01C0B3DE8091150290916A
:101330001602019729F41092160210921502F7DC9A
:101340008091170290911802813A9F4010F0C0934B
:10135000000180911202813019F41092120240DCD7
:101360003CDABACF5D9BFECF8CB908950CD0EBC0B0
:10137000E3D040F0DAD030F021F45F3F19F0CCC078
:10138000511115C1CFC0F0D098F39923C9F355235B
:10139000B1F3951B550BBB27AA2762177307840768
:1013A00038F09F5F5F4F220F331F441FAA1FA9F31E
:1013B00033D00E2E3AF0E0E830D091505040E69510
:1013C000001CCAF729D0FE2F27D0660F771F881F71
:1013D000BB1F261737074807AB07B0E809F0BB0B60
:1013E000802DBF01FF2793585F4F2AF09E3F510584
:1013F00068F092C0DCC05F3FECF3983EDCF386956A
:1014000077956795B795F7959F5FC9F7880F911DF9
:101410009695879597F90895E1E0660F771F881FE5
:10142000BB1F621773078407BA0720F0621B730B98
:10143000840BBA0BEE1F88F7E095089504D06894EA
:10144000B111B5C0089598D088F09F5790F0B92F8A
:101450009927B751A0F0D1F0660F771F881F991F09
:101460001AF0BA95C9F712C0B13081F09FD0B1E03F
:1014700008959CC0672F782F8827B85F39F0B93F4F
:10148000CCF3869577956795B395D9F73EF490950B
:101490008095709561957F4F8F4F9F4F0895E89489
:1014A00009C097FB3EF490958095709561957F4FAC
:1014B0008F4F9F4F9923A9F0F92F96E9BB2793955A
:1014C000F695879577956795B795F111F8CFFAF46A
:1014D000BB0F11F460FF1BC06F5F7F4F8F4F9F4F9B
:1014E00016C0882311F096E911C0772321F09EE8F9
:1014F000872F762F05C0662371F096E8862F70E05F
:1015000060E02AF09A95660F771F881FDAF7880F38
:101510009695879597F9089597F99F6780E870E009
:1015200060E008959FEF80EC089500240A94161659
:10153000170618060906089500240A9412161306C1
:10154000140605060895092E0394000C11F488234F
:1015500052F0BB0F40F4BF2B11F460FF04C06F5F6B
:101560007F4F8F4F9F4F089557FD9058440F551F41
:1015700059F05F3F71F04795880F97FB991F61F015
:101580009F3F79F087950895121613061406551F8C
:10159000F2CF4695F1DF08C0161617061806991FF8
:1015A000F1CF86957105610508940895E894BB27ED
:1015B00066277727CB0197F908950BD0C4CFB5DF05
:1015C00028F0BADF18F0952309F0A6CFABCF11248D
:1015D000EECFCADFA0F3959FD1F3950F50E0551FD2
:1015E000629FF001729FBB27F00DB11D639FAA2778
:1015F000F00DB11DAA1F649F6627B00DA11D661FC7
:10160000829F2227B00DA11D621F739FB00DA11DE7
:10161000621F839FA00D611D221F749F3327A00DA1
:10162000611D231F849F600D211D822F762F6A2F3D
:1016300011249F5750408AF0E1F088234AF0EE0FC2
:10164000FF1FBB1F661F771F881F91505040A9F7CF
:101650009E3F510570F060CFAACF5F3FECF3983EFC
:10166000DCF3869577956795B795F795E7959F5F36
:10167000C1F7FE2B880F911D9695879597F90895D0
:1016800097FB072E16F4009406D077FD08D00BD0F8
:1016900007FC05D03EF4909581959F4F0895709575
:1016A00061957F4F0895AA1BBB1B51E107C0AA1F7C
:1016B000BB1FA617B70710F0A61BB70B881F991FF3
:1016C0005A95A9F780959095BC01CD0108950F9387
:1016D0001F93CF93DF93CDB7DEB72E970FB6F89455
:1016E000DEBF0FBECDBF0D891E8986E08C831A83B5
:1016F00009838FEF9FE79E838D83AE01475E5F4F27
:101700006F89788DCE01019611D02F813885F8012F
:10171000E20FF31F10822E960FB6F894DEBF0FBEB5
:10172000CDBFDF91CF911F910F9108952F923F92DE
:101730004F925F926F927F928F929F92AF92BF92E1
:10174000CF92DF92EF92FF920F931F93CF93DF938D
:10175000CDB7DEB72C970FB6F894DEBF0FBECDBF66
:101760007C016B018A01FC0117821682838181FF53
:10177000B0C1CE0101964C01F7019381F60193FDB2
:10178000859193FF81916F01882309F49EC1853271
:1017900039F493FD859193FF81916F01853221F496
:1017A000B70190E0C7D1E8CF512C312C20E0203296
:1017B000A0F48B3269F030F4803259F0833269F44E
:1017C00020612CC08D3239F0803339F4216026C07D
:1017D0002260246023C0286021C027FD27C030ED8F
:1017E000380F3A3078F426FF06C0FAE05F9E300DDD
:1017F0001124532E13C08AE0389E300D1124332E4D
:1018000020620CC08E3221F426FD5FC1206406C028
:101810008C3611F4206802C0883641F4F60193FD3D
:10182000859193FF81916F018111C1CF982F9F7D89
:101830009554933028F40C5F1F4FFFE3F9830DC0DC
:10184000833631F0833771F0833509F057C021C0FA
:10185000F801808189830E5F1F4F44244394512CEB
:10186000540114C03801F2E06F0E711CF801A08021
:10187000B18026FF03C0652D70E002C06FEF7FEFDF
:10188000C5012C874CD12C0183012C852F77222E6A
:1018900016C03801F2E06F0E711CF801A080B18013
:1018A00026FF03C0652D70E002C06FEF7FEFC5011A
:1018B0002C872AD12C012C852068222E830123FC21
:1018C00019C0832D90E048165906A0F4B70180E2B4
:1018D00090E030D13A94F5CFF50127FC859127FEB1
:1018E00081915F01B70190E025D131103A94F1E088
:1018F0004F1A51084114510479F7DEC0843611F0B3
:10190000893631F5F80127FF07C060817181828136
:1019100093810C5F1F4F08C060817181072E000CFE
:10192000880B990B0E5F1F4F2F76722E97FF09C001
:1019300090958095709561957F4F8F4F9F4F206850
:10194000722E2AE030E0A4012DD1A82EA81843C0A1
:10195000853729F42F7EB22E2AE030E025C0F22F01
:10196000F97FBF2E8F36C1F018F4883579F0ADC0FD
:10197000803719F0883721F0A8C02F2F2061B22EB0
:10198000B4FE0DC08B2D8460B82E09C024FF0AC0A0
:101990009F2F9660B92E06C028E030E005C020E1F8
:1019A00030E002C020E132E0F801B7FE07C06081FC
:1019B0007181828193810C5F1F4F06C060817181AC
:1019C00080E090E00E5F1F4FA401ECD0A82EA81875
:1019D000FB2DFF777F2E76FE0BC0372D3E7FA514A3
:1019E00050F474FE0AC072FC08C0372D3E7E05C05C
:1019F000BA2C372D03C0BA2C01C0B52C34FF0DC052
:101A0000FE01EA0DF11D8081803311F4397E09C099
:101A100032FF06C0B394B39404C0832F867809F0D4
:101A2000B39433FD12C030FF06C05A2CB31418F41F
:101A3000530C5B18B32CB31460F4B70180E290E050
:101A40003C8778D0B3943C85F6CFB31410F43B18A0
:101A500001C0312C34FF11C0B70180E390E03C8716
:101A600069D03C8532FF16C031FD03C088E790E0A5
:101A700002C088E590E0B7010CC0832F867851F052
:101A800031FF02C08BE201C080E237FD8DE2B70179
:101A900090E050D0A51430F4B70180E390E04AD034
:101AA0005A94F8CFAA94F401EA0DF11D8081B70190
:101AB00090E040D0A110F6CF332009F45DCEB701FD
:101AC00080E290E037D03A94F7CFF7018681978192
:101AD00002C08FEF9FEF2C960FB6F894DEBF0FBEBB
:101AE000CDBFDF91CF911F910F91FF90EF90DF90CD
:101AF000CF90BF90AF909F908F907F906F905F90AE
:101B00004F903F902F900895FC01059061507040D8
:101B10000110D8F7809590958E0F9F1F0895FC01B6
:101B20006150704001900110D8F7809590958E0F0C
:101B30009F1F08950F931F93CF93DF93FB01238182
:101B400021FD03C08FEF9FEF28C022FF16C0468102
:101B50005781248135814217530744F4A081B18114
:101B60009D012F5F3F4F318320838C9326813781E6
:101B70002F5F3F4F3783268310C0EB01092F182FAB
:101B80000084F185E02D0995892BE1F68E819F81F6
:101B900001969F838E83812F902FDF91CF911F918C
:101BA0000F910895FA01AA27283051F1203181F1CF
:101BB000E8946F936E7F6E5F7F4F8F4F9F4FAF4F55
:101BC000B1E03ED0B4E03CD0670F781F891F9A1F68
:101BD000A11D680F791F8A1F911DA11D6A0F711D1C
:101BE000811D911DA11D20D009F468943F912AE028
:101BF000269F11243019305D3193DEF6CF01089510
:101C0000462F4770405D4193B3E00FD0C9F7F6CF40
:101C1000462F4F70405D4A3318F0495D31FD405208
:101C2000419302D0A9F7EACFB4E0A695979587959E
:101C300077956795BA95C9F700976105710508957D
:101C40009B01AC010A2E0694579547953795279529
:101C5000BA95C9F7620F731F841F951FA01D0895C1
:041C6000F894FFCF26
:101C64005830303030303030300001000132303103
:101C74003130353936004A4948554E2042414E47A5
:101C84000052554E0031330025322E326425322E57
:101C9400326425322E326400303600313400303064
:101CA40030303030003032003135003031003136E0
:021CB40000002E
:00000001FF
